{
  "_format": "hh-sol-artifact-1",
  "contractName": "LensStorage",
  "sourceName": "contracts/LensStorage.sol",
  "abi": [
    {
      "inputs": [
        {
          "internalType": "string",
          "name": "_url",
          "type": "string"
        },
        {
          "internalType": "string",
          "name": "_publicationID",
          "type": "string"
        }
      ],
      "name": "addPublication",
      "outputs": [],
      "stateMutability": "nonpayable",
      "type": "function"
    },
    {
      "inputs": [
        {
          "internalType": "string",
          "name": "_url",
          "type": "string"
        }
      ],
      "name": "getPublications",
      "outputs": [
        {
          "internalType": "string[]",
          "name": "",
          "type": "string[]"
        }
      ],
      "stateMutability": "view",
      "type": "function"
    },
    {
      "inputs": [
        {
          "internalType": "string",
          "name": "",
          "type": "string"
        },
        {
          "internalType": "uint256",
          "name": "",
          "type": "uint256"
        }
      ],
      "name": "publications",
      "outputs": [
        {
          "internalType": "string",
          "name": "",
          "type": "string"
        }
      ],
      "stateMutability": "view",
      "type": "function"
    },
    {
      "inputs": [
        {
          "internalType": "uint256",
          "name": "",
          "type": "uint256"
        }
      ],
      "name": "urls",
      "outputs": [
        {
          "internalType": "string",
          "name": "",
          "type": "string"
        }
      ],
      "stateMutability": "view",
      "type": "function"
    }
  ],
  "bytecode": "0x608060405234801561001057600080fd5b50610c3f806100206000396000f3fe608060405234801561001057600080fd5b506004361061004c5760003560e01c806310ee88cf1461005157806367a160511461006d578063796676be1461009d578063aafacd73146100cd575b600080fd5b61006b60048036038101906100669190610589565b6100fd565b005b61008760048036038101906100829190610637565b610185565b6040516100949190610712565b60405180910390f35b6100b760048036038101906100b29190610734565b610254565b6040516100c49190610712565b60405180910390f35b6100e760048036038101906100e29190610761565b610300565b6040516100f491906108b6565b60405180910390f35b600060018360405161010f9190610914565b908152602001604051809103902080549050036101305761012f826103f7565b5b6001826040516101409190610914565b9081526020016040518091039020819080600181540180825580915050600190039060005260206000200160009091909190915090816101809190610b37565b505050565b60018280516020810182018051848252602083016020850120818352809550505050505081815481106101b757600080fd5b906000526020600020016000915091505080546101d39061095a565b80601f01602080910402602001604051908101604052809291908181526020018280546101ff9061095a565b801561024c5780601f106102215761010080835404028352916020019161024c565b820191906000526020600020905b81548152906001019060200180831161022f57829003601f168201915b505050505081565b6000818154811061026457600080fd5b90600052602060002001600091509050805461027f9061095a565b80601f01602080910402602001604051908101604052809291908181526020018280546102ab9061095a565b80156102f85780601f106102cd576101008083540402835291602001916102f8565b820191906000526020600020905b8154815290600101906020018083116102db57829003601f168201915b505050505081565b60606001826040516103129190610914565b9081526020016040518091039020805480602002602001604051908101604052809291908181526020016000905b828210156103ec57838290600052602060002001805461035f9061095a565b80601f016020809104026020016040519081016040528092919081815260200182805461038b9061095a565b80156103d85780601f106103ad576101008083540402835291602001916103d8565b820191906000526020600020905b8154815290600101906020018083116103bb57829003601f168201915b505050505081526020019060010190610340565b505050509050919050565b60008190806001815401808255809150506001900390600052602060002001600090919091909150908161042b9190610b37565b5050565b6000604051905090565b600080fd5b600080fd5b600080fd5b600080fd5b6000601f19601f8301169050919050565b7f4e487b7100000000000000000000000000000000000000000000000000000000600052604160045260246000fd5b6104968261044d565b810181811067ffffffffffffffff821117156104b5576104b461045e565b5b80604052505050565b60006104c861042f565b90506104d4828261048d565b919050565b600067ffffffffffffffff8211156104f4576104f361045e565b5b6104fd8261044d565b9050602081019050919050565b82818337600083830152505050565b600061052c610527846104d9565b6104be565b90508281526020810184848401111561054857610547610448565b5b61055384828561050a565b509392505050565b600082601f8301126105705761056f610443565b5b8135610580848260208601610519565b91505092915050565b600080604083850312156105a05761059f610439565b5b600083013567ffffffffffffffff8111156105be576105bd61043e565b5b6105ca8582860161055b565b925050602083013567ffffffffffffffff8111156105eb576105ea61043e565b5b6105f78582860161055b565b9150509250929050565b6000819050919050565b61061481610601565b811461061f57600080fd5b50565b6000813590506106318161060b565b92915050565b6000806040838503121561064e5761064d610439565b5b600083013567ffffffffffffffff81111561066c5761066b61043e565b5b6106788582860161055b565b925050602061068985828601610622565b9150509250929050565b600081519050919050565b600082825260208201905092915050565b60005b838110156106cd5780820151818401526020810190506106b2565b60008484015250505050565b60006106e482610693565b6106ee818561069e565b93506106fe8185602086016106af565b6107078161044d565b840191505092915050565b6000602082019050818103600083015261072c81846106d9565b905092915050565b60006020828403121561074a57610749610439565b5b600061075884828501610622565b91505092915050565b60006020828403121561077757610776610439565b5b600082013567ffffffffffffffff8111156107955761079461043e565b5b6107a18482850161055b565b91505092915050565b600081519050919050565b600082825260208201905092915050565b6000819050602082019050919050565b600082825260208201905092915050565b60006107f282610693565b6107fc81856107d6565b935061080c8185602086016106af565b6108158161044d565b840191505092915050565b600061082c83836107e7565b905092915050565b6000602082019050919050565b600061084c826107aa565b61085681856107b5565b935083602082028501610868856107c6565b8060005b858110156108a457848403895281516108858582610820565b945061089083610834565b925060208a0199505060018101905061086c565b50829750879550505050505092915050565b600060208201905081810360008301526108d08184610841565b905092915050565b600081905092915050565b60006108ee82610693565b6108f881856108d8565b93506109088185602086016106af565b80840191505092915050565b600061092082846108e3565b915081905092915050565b7f4e487b7100000000000000000000000000000000000000000000000000000000600052602260045260246000fd5b6000600282049050600182168061097257607f821691505b6020821081036109855761098461092b565b5b50919050565b60008190508160005260206000209050919050565b60006020601f8301049050919050565b600082821b905092915050565b6000600883026109ed7fffffffffffffffffffffffffffffffffffffffffffffffffffffffffffffffff826109b0565b6109f786836109b0565b95508019841693508086168417925050509392505050565b6000819050919050565b6000610a34610a2f610a2a84610601565b610a0f565b610601565b9050919050565b6000819050919050565b610a4e83610a19565b610a62610a5a82610a3b565b8484546109bd565b825550505050565b600090565b610a77610a6a565b610a82818484610a45565b505050565b5b81811015610aa657610a9b600082610a6f565b600181019050610a88565b5050565b601f821115610aeb57610abc8161098b565b610ac5846109a0565b81016020851015610ad4578190505b610ae8610ae0856109a0565b830182610a87565b50505b505050565b600082821c905092915050565b6000610b0e60001984600802610af0565b1980831691505092915050565b6000610b278383610afd565b9150826002028217905092915050565b610b4082610693565b67ffffffffffffffff811115610b5957610b5861045e565b5b610b63825461095a565b610b6e828285610aaa565b600060209050601f831160018114610ba15760008415610b8f578287015190505b610b998582610b1b565b865550610c01565b601f198416610baf8661098b565b60005b82811015610bd757848901518255600182019150602085019450602081019050610bb2565b86831015610bf45784890151610bf0601f891682610afd565b8355505b6001600288020188555050505b50505050505056fea2646970667358221220302e6dc7664350598b73d278f20fc0a7b4b7a4b82a3471911e59345dbffa397164736f6c63430008110033",
  "linkReferences": {},
  "deployedLinkReferences": {}
}